{"abi":[{"type":"function","name":"EXTRA_ARGS_V1_TAG","inputs":[],"outputs":[{"name":"","type":"bytes4","internalType":"bytes4"}],"stateMutability":"view"}],"bytecode":{"object":"0x60af6032600b8282823980515f1a607314602657634e487b7160e01b5f525f60045260245ffd5b305f52607381538281f3fe73000000000000000000000000000000000000000030146080604052600436106032575f3560e01c8063f7514ab4146036575b5f5ffd5b605c7f92fd13387c7fe7befbc38d303d6468778fb9731bc4583f17d92989c6fcfdeaaa81565b6040516001600160e01b0319909116815260200160405180910390f3fea26469706673582212202c659a50e2b14cec33eba18c6b0b51c74bb3642cbe568c9d072ac2b352d02ae664736f6c634300081c0033","linkReferences":{}},"methodIdentifiers":{"EXTRA_ARGS_V1_TAG()":"f7514ab4"},"id":6}