{"abi":[{"type":"constructor","inputs":[],"stateMutability":"nonpayable"},{"type":"receive","stateMutability":"payable"},{"type":"function","name":"acceptOwnership","inputs":[],"outputs":[],"stateMutability":"nonpayable"},{"type":"function","name":"callbackGasLimit","inputs":[],"outputs":[{"name":"","type":"uint32","internalType":"uint32"}],"stateMutability":"view"},{"type":"function","name":"getBalance","inputs":[],"outputs":[{"name":"","type":"uint256","internalType":"uint256"}],"stateMutability":"view"},{"type":"function","name":"getLinkToken","inputs":[],"outputs":[{"name":"","type":"address","internalType":"contract LinkTokenInterface"}],"stateMutability":"view"},{"type":"function","name":"getRequestStatus","inputs":[{"name":"_requestId","type":"uint256","internalType":"uint256"}],"outputs":[{"name":"paid","type":"uint256","internalType":"uint256"},{"name":"fulfilled","type":"bool","internalType":"bool"},{"name":"randomWords","type":"uint256[]","internalType":"uint256[]"}],"stateMutability":"view"},{"type":"function","name":"i_vrfV2PlusWrapper","inputs":[],"outputs":[{"name":"","type":"address","internalType":"contract IVRFV2PlusWrapper"}],"stateMutability":"view"},{"type":"function","name":"lastRequestId","inputs":[],"outputs":[{"name":"","type":"uint256","internalType":"uint256"}],"stateMutability":"view"},{"type":"function","name":"linkAddress","inputs":[],"outputs":[{"name":"","type":"address","internalType":"address"}],"stateMutability":"view"},{"type":"function","name":"numWords","inputs":[],"outputs":[{"name":"","type":"uint32","internalType":"uint32"}],"stateMutability":"view"},{"type":"function","name":"owner","inputs":[],"outputs":[{"name":"","type":"address","internalType":"address"}],"stateMutability":"view"},{"type":"function","name":"rawFulfillRandomWords","inputs":[{"name":"_requestId","type":"uint256","internalType":"uint256"},{"name":"_randomWords","type":"uint256[]","internalType":"uint256[]"}],"outputs":[],"stateMutability":"nonpayable"},{"type":"function","name":"requestConfirmations","inputs":[],"outputs":[{"name":"","type":"uint16","internalType":"uint16"}],"stateMutability":"view"},{"type":"function","name":"requestIds","inputs":[{"name":"","type":"uint256","internalType":"uint256"}],"outputs":[{"name":"","type":"uint256","internalType":"uint256"}],"stateMutability":"view"},{"type":"function","name":"requestRandomWords","inputs":[{"name":"enableNativePayment","type":"bool","internalType":"bool"}],"outputs":[{"name":"","type":"uint256","internalType":"uint256"}],"stateMutability":"nonpayable"},{"type":"function","name":"s_requests","inputs":[{"name":"","type":"uint256","internalType":"uint256"}],"outputs":[{"name":"paid","type":"uint256","internalType":"uint256"},{"name":"fulfilled","type":"bool","internalType":"bool"}],"stateMutability":"view"},{"type":"function","name":"transferOwnership","inputs":[{"name":"to","type":"address","internalType":"address"}],"outputs":[],"stateMutability":"nonpayable"},{"type":"function","name":"withdrawLink","inputs":[],"outputs":[],"stateMutability":"nonpayable"},{"type":"function","name":"withdrawNative","inputs":[{"name":"amount","type":"uint256","internalType":"uint256"}],"outputs":[],"stateMutability":"nonpayable"},{"type":"function","name":"wrapperAddress","inputs":[],"outputs":[{"name":"","type":"address","internalType":"address"}],"stateMutability":"view"},{"type":"event","name":"OwnershipTransferRequested","inputs":[{"name":"from","type":"address","indexed":true,"internalType":"address"},{"name":"to","type":"address","indexed":true,"internalType":"address"}],"anonymous":false},{"type":"event","name":"OwnershipTransferred","inputs":[{"name":"from","type":"address","indexed":true,"internalType":"address"},{"name":"to","type":"address","indexed":true,"internalType":"address"}],"anonymous":false},{"type":"event","name":"Received","inputs":[{"name":"","type":"address","indexed":false,"internalType":"address"},{"name":"","type":"uint256","indexed":false,"internalType":"uint256"}],"anonymous":false},{"type":"event","name":"RequestFulfilled","inputs":[{"name":"requestId","type":"uint256","indexed":false,"internalType":"uint256"},{"name":"randomWords","type":"uint256[]","indexed":false,"internalType":"uint256[]"},{"name":"payment","type":"uint256","indexed":false,"internalType":"uint256"}],"anonymous":false},{"type":"event","name":"RequestSent","inputs":[{"name":"requestId","type":"uint256","indexed":false,"internalType":"uint256"},{"name":"numWords","type":"uint32","indexed":false,"internalType":"uint32"}],"anonymous":false},{"type":"error","name":"OnlyVRFWrapperCanFulfill","inputs":[{"name":"have","type":"address","internalType":"address"},{"name":"want","type":"address","internalType":"address"}]}],"bytecode":{"object":"0x60c0604052600580547d779877a7b0d9e8603169ddbd7836e478b4624789000000020003000186a06001600160f01b0319909116179055600680546001600160a01b03191673195f15f2d49d693ce265b4fb0fddbe15b1850cc1179055348015610067575f5ffd5b5033805f60065f9054906101000a90046001600160a01b03165f819050806001600160a01b0316631c4695f46040518163ffffffff1660e01b8152600401602060405180830381865afa1580156100c0573d5f5f3e3d5ffd5b505050506040513d601f19601f820116820180604052508101906100e4919061022c565b6001600160a01b0390811660805290811660a0528316905061014d5760405162461bcd60e51b815260206004820152601860248201527f43616e6e6f7420736574206f776e657220746f207a65726f000000000000000060448201526064015b60405180910390fd5b5f80546001600160a01b0319166001600160a01b038481169190911790915581161561017c5761017c81610184565b505050610259565b336001600160a01b038216036101dc5760405162461bcd60e51b815260206004820152601760248201527f43616e6e6f74207472616e7366657220746f2073656c660000000000000000006044820152606401610144565b600180546001600160a01b0319166001600160a01b038381169182179092555f8054604051929316917fed8889f560326eb138920d842192f0eb3dd22b4f139c87a2c57538e05bae12789190a350565b5f6020828403121561023c575f5ffd5b81516001600160a01b0381168114610252575f5ffd5b9392505050565b60805160a0516112596102ab5f395f81816102fb0152818161043201528181610b8101528181610bee01528181610cba01528181610d560152610dfd01525f81816103d80152610d2701526112595ff3fe608060405260043610610113575f3560e01c80638796ba8c1161009d578063b0fb162f11610062578063b0fb162f14610367578063d8a4676f1461039c578063e76d5168146103ca578063f2fde38b146103fc578063fc2a88c31461041b575f5ffd5b80638796ba8c1461029b5780638da5cb5b146102ba5780638dc654a2146102d65780639ed0868d146102ea578063a168fa891461031d575f5ffd5b80637392a771116100e35780637392a7711461020757806379ba5097146102265780637ccfd7fc1461023a5780637df8b8021461025d57806384276d811461027c575f5ffd5b806312065fe0146101565780631fe543e314610177578063235cea981461019857806324f74697146101d6575f5ffd5b3661015257604080513381523460208201527f88a5966d370b9919b20f3e2c13ff65706f196a4e32cc2c12bf57088f88525874910160405180910390a1005b5f5ffd5b348015610161575f5ffd5b50475b6040519081526020015b60405180910390f35b348015610182575f5ffd5b50610196610191366004610f94565b610430565b005b3480156101a3575f5ffd5b506005546101be90600160501b90046001600160a01b031681565b6040516001600160a01b03909116815260200161016e565b3480156101e1575f5ffd5b506005546101f29063ffffffff1681565b60405163ffffffff909116815260200161016e565b348015610212575f5ffd5b50610164610221366004611075565b61049f565b348015610231575f5ffd5b50610196610624565b348015610245575f5ffd5b506005546101f290600160301b900463ffffffff1681565b348015610268575f5ffd5b506006546101be906001600160a01b031681565b348015610287575f5ffd5b50610196610296366004611097565b6106cd565b3480156102a6575f5ffd5b506101646102b5366004611097565b610771565b3480156102c5575f5ffd5b505f546001600160a01b03166101be565b3480156102e1575f5ffd5b50610196610790565b3480156102f5575f5ffd5b506101be7f000000000000000000000000000000000000000000000000000000000000000081565b348015610328575f5ffd5b50610352610337366004611097565b60026020525f90815260409020805460019091015460ff1682565b6040805192835290151560208301520161016e565b348015610372575f5ffd5b5060055461038990640100000000900461ffff1681565b60405161ffff909116815260200161016e565b3480156103a7575f5ffd5b506103bb6103b6366004611097565b6108c4565b60405161016e939291906110e8565b3480156103d5575f5ffd5b507f00000000000000000000000000000000000000000000000000000000000000006101be565b348015610407575f5ffd5b50610196610416366004611111565b6109ac565b348015610426575f5ffd5b5061016460045481565b7f0000000000000000000000000000000000000000000000000000000000000000336001600160a01b03821614610490576040516345d498b760e11b81523360048201526001600160a01b03821660248201526044015b60405180910390fd5b61049a83836109bd565b505050565b5f6104a8610a8d565b5f6104c26040518060200160405280851515815250610ae1565b90505f5f8415610502576005546104f89063ffffffff8082169161ffff64010000000082041691600160301b9091041686610b52565b9092509050610534565b60055461052e9063ffffffff8082169161ffff64010000000082041691600160301b9091041686610c8b565b90925090505b604080516060810182528281525f60208083018281528451838152808301865284860190815287845260028084529590932084518155905160018201805460ff19169115159190911790559151805193949293610598938501929190910190610f23565b5050600380546001810182555f919091527fc2575a0e9e593c00f959f8c92f12db2869c3395a3b0502d05e2516446f71f85b0183905550600482905560055460408051848152600160301b90920463ffffffff1660208301527fcc58b13ad3eab50626c6a6300b1d139cd6ebb1688a7cced9461c2f7e762665ee910160405180910390a1509392505050565b6001546001600160a01b031633146106775760405162461bcd60e51b815260206004820152601660248201527526bab9ba10313290383937b837b9b2b21037bbb732b960511b6044820152606401610487565b5f8054336001600160a01b0319808316821784556001805490911690556040516001600160a01b0390921692909183917f8be0079c531659141344cd1fd0a4f28419497f9722a3daafe3b4186f6b6457e091a350565b6106d5610a8d565b5f80546040516001600160a01b039091169083908381818185875af1925050503d805f811461071f576040519150601f19603f3d011682016040523d82523d5f602084013e610724565b606091505b505090508061076d5760405162461bcd60e51b81526020600482015260156024820152741dda5d1a191c985dd3985d1a5d994819985a5b1959605a1b6044820152606401610487565b5050565b60038181548110610780575f80fd5b5f91825260209091200154905081565b610798610a8d565b6005546040516370a0823160e01b8152306004820152600160501b9091046001600160a01b031690819063a9059cbb90339083906370a0823190602401602060405180830381865afa1580156107f0573d5f5f3e3d5ffd5b505050506040513d601f19601f820116820180604052508101906108149190611137565b6040516001600160e01b031960e085901b1681526001600160a01b03909216600483015260248201526044016020604051808303815f875af115801561085c573d5f5f3e3d5ffd5b505050506040513d601f19601f82011682018060405250810190610880919061114e565b6108c15760405162461bcd60e51b81526020600482015260126024820152712ab730b13632903a37903a3930b739b332b960711b6044820152606401610487565b50565b5f8181526002602052604081205481906060906109175760405162461bcd60e51b81526020600482015260116024820152701c995c5d595cdd081b9bdd08199bdd5b99607a1b6044820152606401610487565b5f848152600260208181526040808420815160608101835281548152600182015460ff161515818501529381018054835181860281018601855281815292949386019383018282801561098757602002820191905f5260205f20905b815481526020019060010190808311610973575b5050509190925250508151602083015160409093015190989297509550909350505050565b6109b4610a8d565b6108c181610e7b565b5f82815260026020526040902054610a0b5760405162461bcd60e51b81526020600482015260116024820152701c995c5d595cdd081b9bdd08199bdd5b99607a1b6044820152606401610487565b5f8281526002602081815260409092206001818101805460ff191690911790558351610a3f93919092019190840190610f23565b505f82815260026020526040908190205490517f147eb1ff0c82f87f2b03e2c43f5a36488ff63ec6b730195fde4605f612f8db5191610a819185918591611169565b60405180910390a15050565b5f546001600160a01b03163314610adf5760405162461bcd60e51b815260206004820152601660248201527527b7363c9031b0b63630b1363290313c9037bbb732b960511b6044820152606401610487565b565b60607f92fd13387c7fe7befbc38d303d6468778fb9731bc4583f17d92989c6fcfdeaaa82604051602401610b1a91511515815260200190565b60408051601f198184030181529190526020810180516001600160e01b03166001600160e01b03199093169290921790915292915050565b6040516313c34b7f60e01b815263ffffffff8086166004830152831660248201525f9081906001600160a01b037f000000000000000000000000000000000000000000000000000000000000000016906313c34b7f90604401602060405180830381865afa158015610bc6573d5f5f3e3d5ffd5b505050506040513d601f19601f82011682018060405250810190610bea9190611137565b90507f00000000000000000000000000000000000000000000000000000000000000006001600160a01b0316639cfc058e82888888886040518663ffffffff1660e01b8152600401610c3f94939291906111bf565b60206040518083038185885af1158015610c5b573d5f5f3e3d5ffd5b50505050506040513d601f19601f82011682018060405250810190610c809190611137565b915094509492505050565b6040516313f2e28560e11b815263ffffffff8086166004830152831660248201525f9081906001600160a01b037f000000000000000000000000000000000000000000000000000000000000000016906327e5c50a90604401602060405180830381865afa158015610cff573d5f5f3e3d5ffd5b505050506040513d601f19601f82011682018060405250810190610d239190611137565b90507f00000000000000000000000000000000000000000000000000000000000000006001600160a01b0316634000aea07f00000000000000000000000000000000000000000000000000000000000000008389898989604051602001610d8d94939291906111bf565b6040516020818303038152906040526040518463ffffffff1660e01b8152600401610dba939291906111fd565b6020604051808303815f875af1158015610dd6573d5f5f3e3d5ffd5b505050506040513d601f19601f82011682018060405250810190610dfa919061114e565b507f00000000000000000000000000000000000000000000000000000000000000006001600160a01b031663fc2a88c36040518163ffffffff1660e01b8152600401602060405180830381865afa158015610e57573d5f5f3e3d5ffd5b505050506040513d601f19601f82011682018060405250810190610c809190611137565b336001600160a01b03821603610ed35760405162461bcd60e51b815260206004820152601760248201527f43616e6e6f74207472616e7366657220746f2073656c660000000000000000006044820152606401610487565b600180546001600160a01b0319166001600160a01b038381169182179092555f8054604051929316917fed8889f560326eb138920d842192f0eb3dd22b4f139c87a2c57538e05bae12789190a350565b828054828255905f5260205f20908101928215610f5c579160200282015b82811115610f5c578251825591602001919060010190610f41565b50610f68929150610f6c565b5090565b5b80821115610f68575f8155600101610f6d565b634e487b7160e01b5f52604160045260245ffd5b5f5f60408385031215610fa5575f5ffd5b82359150602083013567ffffffffffffffff811115610fc2575f5ffd5b8301601f81018513610fd2575f5ffd5b803567ffffffffffffffff811115610fec57610fec610f80565b8060051b604051601f19603f830116810181811067ffffffffffffffff8211171561101957611019610f80565b604052918252602081840181019290810188841115611036575f5ffd5b6020850194505b838510156110595784358082526020958601959093500161103d565b50809450505050509250929050565b80151581146108c1575f5ffd5b5f60208284031215611085575f5ffd5b813561109081611068565b9392505050565b5f602082840312156110a7575f5ffd5b5035919050565b5f8151808452602084019350602083015f5b828110156110de5781518652602095860195909101906001016110c0565b5093949350505050565b8381528215156020820152606060408201525f61110860608301846110ae565b95945050505050565b5f60208284031215611121575f5ffd5b81356001600160a01b0381168114611090575f5ffd5b5f60208284031215611147575f5ffd5b5051919050565b5f6020828403121561115e575f5ffd5b815161109081611068565b838152606060208201525f61118160608301856110ae565b9050826040830152949350505050565b5f81518084528060208401602086015e5f602082860101526020601f19601f83011685010191505092915050565b63ffffffff8516815261ffff8416602082015263ffffffff83166040820152608060608201525f6111f36080830184611191565b9695505050505050565b60018060a01b0384168152826020820152606060408201525f611108606083018461119156fea26469706673582212202d8984a832b62e10a15c07950b77a1bcd20f6e05cc12f4f10380b98f9b2bdf5764736f6c634300081c0033","linkReferences":{}},"methodIdentifiers":{"acceptOwnership()":"79ba5097","callbackGasLimit()":"24f74697","getBalance()":"12065fe0","getLinkToken()":"e76d5168","getRequestStatus(uint256)":"d8a4676f","i_vrfV2PlusWrapper()":"9ed0868d","lastRequestId()":"fc2a88c3","linkAddress()":"235cea98","numWords()":"7ccfd7fc","owner()":"8da5cb5b","rawFulfillRandomWords(uint256,uint256[])":"1fe543e3","requestConfirmations()":"b0fb162f","requestIds(uint256)":"8796ba8c","requestRandomWords(bool)":"7392a771","s_requests(uint256)":"a168fa89","transferOwnership(address)":"f2fde38b","withdrawLink()":"8dc654a2","withdrawNative(uint256)":"84276d81","wrapperAddress()":"7df8b802"},"id":7}